{
	"SimpleStorage.sol": {
		"SimpleStorage": {
			"abi": [
				{
					"inputs": [
						{
							"internalType": "string",
							"name": "_nama",
							"type": "string"
						},
						{
							"internalType": "uint256",
							"name": "_nofav",
							"type": "uint256"
						}
					],
					"name": "addOrang",
					"outputs": [],
					"stateMutability": "nonpayable",
					"type": "function"
				},
				{
					"inputs": [
						{
							"internalType": "uint256",
							"name": "",
							"type": "uint256"
						}
					],
					"name": "listOrang",
					"outputs": [
						{
							"internalType": "uint256",
							"name": "NoFav",
							"type": "uint256"
						},
						{
							"internalType": "string",
							"name": "nama",
							"type": "string"
						}
					],
					"stateMutability": "view",
					"type": "function"
				},
				{
					"inputs": [
						{
							"internalType": "string",
							"name": "",
							"type": "string"
						}
					],
					"name": "namaToNoFav",
					"outputs": [
						{
							"internalType": "uint256",
							"name": "",
							"type": "uint256"
						}
					],
					"stateMutability": "view",
					"type": "function"
				},
				{
					"inputs": [],
					"name": "noFav",
					"outputs": [
						{
							"internalType": "uint256",
							"name": "",
							"type": "uint256"
						}
					],
					"stateMutability": "view",
					"type": "function"
				},
				{
					"inputs": [],
					"name": "retrive",
					"outputs": [
						{
							"internalType": "uint256",
							"name": "",
							"type": "uint256"
						}
					],
					"stateMutability": "view",
					"type": "function"
				},
				{
					"inputs": [
						{
							"internalType": "uint256",
							"name": "_noFav",
							"type": "uint256"
						}
					],
					"name": "store",
					"outputs": [],
					"stateMutability": "nonpayable",
					"type": "function"
				}
			],
			"devdoc": {
				"kind": "dev",
				"methods": {},
				"version": 1
			},
			"evm": {
				"assembly": "    /* \"SimpleStorage.sol\":94:718  contract SimpleStorage {... */\n  mstore(0x40, 0x80)\n  callvalue\n  dup1\n  iszero\n  tag_1\n  jumpi\n  revert(0x00, 0x00)\ntag_1:\n  pop\n  dataSize(sub_0)\n  dup1\n  dataOffset(sub_0)\n  0x00\n  codecopy\n  0x00\n  return\nstop\n\nsub_0: assembly {\n        /* \"SimpleStorage.sol\":94:718  contract SimpleStorage {... */\n      mstore(0x40, 0x80)\n      callvalue\n      dup1\n      iszero\n      tag_1\n      jumpi\n      revert(0x00, 0x00)\n    tag_1:\n      pop\n      jumpi(tag_2, lt(calldatasize, 0x04))\n      shr(0xe0, calldataload(0x00))\n      dup1\n      0x0ce47d1d\n      eq\n      tag_3\n      jumpi\n      dup1\n      0x6057361d\n      eq\n      tag_4\n      jumpi\n      dup1\n      0x651141b2\n      eq\n      tag_5\n      jumpi\n      dup1\n      0x786e04d2\n      eq\n      tag_6\n      jumpi\n      dup1\n      0xa6b7fc5b\n      eq\n      tag_7\n      jumpi\n      dup1\n      0xfa117114\n      eq\n      tag_8\n      jumpi\n    tag_2:\n      revert(0x00, 0x00)\n        /* \"SimpleStorage.sol\":292:337  mapping(string => uint256) public namaToNoFav */\n    tag_3:\n      tag_9\n      0x04\n      dup1\n      calldatasize\n      sub\n      dup2\n      add\n      swap1\n      tag_10\n      swap2\n      swap1\n      tag_11\n      jump\t// in\n    tag_10:\n      tag_12\n      jump\t// in\n    tag_9:\n      mload(0x40)\n      tag_13\n      swap2\n      swap1\n      tag_14\n      jump\t// in\n    tag_13:\n      mload(0x40)\n      dup1\n      swap2\n      sub\n      swap1\n      return\n        /* \"SimpleStorage.sol\":350:429  function store(uint256 _noFav) public virtual {... */\n    tag_4:\n      tag_15\n      0x04\n      dup1\n      calldatasize\n      sub\n      dup2\n      add\n      swap1\n      tag_16\n      swap2\n      swap1\n      tag_17\n      jump\t// in\n    tag_16:\n      tag_18\n      jump\t// in\n    tag_15:\n      stop\n        /* \"SimpleStorage.sol\":562:715  function addOrang(string memory _nama, uint256 _nofav) public {... */\n    tag_5:\n      tag_19\n      0x04\n      dup1\n      calldatasize\n      sub\n      dup2\n      add\n      swap1\n      tag_20\n      swap2\n      swap1\n      tag_21\n      jump\t// in\n    tag_20:\n      tag_22\n      jump\t// in\n    tag_19:\n      stop\n        /* \"SimpleStorage.sol\":126:146  uint256 public noFav */\n    tag_6:\n      tag_23\n      tag_24\n      jump\t// in\n    tag_23:\n      mload(0x40)\n      tag_25\n      swap2\n      swap1\n      tag_14\n      jump\t// in\n    tag_25:\n      mload(0x40)\n      dup1\n      swap2\n      sub\n      swap1\n      return\n        /* \"SimpleStorage.sol\":437:521  function retrive() public view returns (uint256) {    ... */\n    tag_7:\n      tag_26\n      tag_27\n      jump\t// in\n    tag_26:\n      mload(0x40)\n      tag_28\n      swap2\n      swap1\n      tag_14\n      jump\t// in\n    tag_28:\n      mload(0x40)\n      dup1\n      swap2\n      sub\n      swap1\n      return\n        /* \"SimpleStorage.sol\":259:283  Orang[] public listOrang */\n    tag_8:\n      tag_29\n      0x04\n      dup1\n      calldatasize\n      sub\n      dup2\n      add\n      swap1\n      tag_30\n      swap2\n      swap1\n      tag_17\n      jump\t// in\n    tag_30:\n      tag_31\n      jump\t// in\n    tag_29:\n      mload(0x40)\n      tag_32\n      swap3\n      swap2\n      swap1\n      tag_33\n      jump\t// in\n    tag_32:\n      mload(0x40)\n      dup1\n      swap2\n      sub\n      swap1\n      return\n        /* \"SimpleStorage.sol\":292:337  mapping(string => uint256) public namaToNoFav */\n    tag_12:\n      0x02\n      dup2\n      dup1\n      mload\n      0x20\n      dup2\n      add\n      dup3\n      add\n      dup1\n      mload\n      dup5\n      dup3\n      mstore\n      0x20\n      dup4\n      add\n      0x20\n      dup6\n      add\n      keccak256\n      dup2\n      dup4\n      mstore\n      dup1\n      swap6\n      pop\n      pop\n      pop\n      pop\n      pop\n      pop\n      0x00\n      swap2\n      pop\n      swap1\n      pop\n      sload\n      dup2\n      jump\t// out\n        /* \"SimpleStorage.sol\":350:429  function store(uint256 _noFav) public virtual {... */\n    tag_18:\n        /* \"SimpleStorage.sol\":415:421  _noFav */\n      dup1\n        /* \"SimpleStorage.sol\":407:412  noFav */\n      0x00\n        /* \"SimpleStorage.sol\":407:421  noFav = _noFav */\n      dup2\n      swap1\n      sstore\n      pop\n        /* \"SimpleStorage.sol\":350:429  function store(uint256 _noFav) public virtual {... */\n      pop\n      jump\t// out\n        /* \"SimpleStorage.sol\":562:715  function addOrang(string memory _nama, uint256 _nofav) public {... */\n    tag_22:\n        /* \"SimpleStorage.sol\":634:643  listOrang */\n      0x01\n        /* \"SimpleStorage.sol\":649:669  Orang(_nofav, _nama) */\n      mload(0x40)\n      dup1\n      0x40\n      add\n      0x40\n      mstore\n      dup1\n        /* \"SimpleStorage.sol\":655:661  _nofav */\n      dup4\n        /* \"SimpleStorage.sol\":649:669  Orang(_nofav, _nama) */\n      dup2\n      mstore\n      0x20\n      add\n        /* \"SimpleStorage.sol\":663:668  _nama */\n      dup5\n        /* \"SimpleStorage.sol\":649:669  Orang(_nofav, _nama) */\n      dup2\n      mstore\n      pop\n        /* \"SimpleStorage.sol\":634:670  listOrang.push(Orang(_nofav, _nama)) */\n      swap1\n      dup1\n      0x01\n      dup2\n      sload\n      add\n      dup1\n      dup3\n      sstore\n      dup1\n      swap2\n      pop\n      pop\n      0x01\n      swap1\n      sub\n      swap1\n      0x00\n      mstore\n      keccak256(0x00, 0x20)\n      swap1\n      0x02\n      mul\n      add\n      0x00\n      swap1\n      swap2\n      swap1\n      swap2\n      swap1\n      swap2\n      pop\n      0x00\n      dup3\n      add\n      mload\n      dup2\n      0x00\n      add\n      sstore\n      0x20\n      dup3\n      add\n      mload\n      dup2\n      0x01\n      add\n      swap1\n      dup2\n      tag_37\n      swap2\n      swap1\n      tag_38\n      jump\t// in\n    tag_37:\n      pop\n      pop\n      pop\n        /* \"SimpleStorage.sol\":701:707  _nofav */\n      dup1\n        /* \"SimpleStorage.sol\":680:691  namaToNoFav */\n      0x02\n        /* \"SimpleStorage.sol\":692:697  _nama */\n      dup4\n        /* \"SimpleStorage.sol\":680:698  namaToNoFav[_nama] */\n      mload(0x40)\n      tag_39\n      swap2\n      swap1\n      tag_40\n      jump\t// in\n    tag_39:\n      swap1\n      dup2\n      mstore\n      0x20\n      add\n      mload(0x40)\n      dup1\n      swap2\n      sub\n      swap1\n      keccak256\n        /* \"SimpleStorage.sol\":680:707  namaToNoFav[_nama] = _nofav */\n      dup2\n      swap1\n      sstore\n      pop\n        /* \"SimpleStorage.sol\":562:715  function addOrang(string memory _nama, uint256 _nofav) public {... */\n      pop\n      pop\n      jump\t// out\n        /* \"SimpleStorage.sol\":126:146  uint256 public noFav */\n    tag_24:\n      sload(0x00)\n      dup2\n      jump\t// out\n        /* \"SimpleStorage.sol\":437:521  function retrive() public view returns (uint256) {    ... */\n    tag_27:\n        /* \"SimpleStorage.sol\":477:484  uint256 */\n      0x00\n        /* \"SimpleStorage.sol\":508:513  noFav */\n      sload(0x00)\n        /* \"SimpleStorage.sol\":501:513  return noFav */\n      swap1\n      pop\n        /* \"SimpleStorage.sol\":437:521  function retrive() public view returns (uint256) {    ... */\n      swap1\n      jump\t// out\n        /* \"SimpleStorage.sol\":259:283  Orang[] public listOrang */\n    tag_31:\n      0x01\n      dup2\n      dup2\n      sload\n      dup2\n      lt\n      tag_42\n      jumpi\n      0x00\n      dup1\n      revert\n    tag_42:\n      swap1\n      0x00\n      mstore\n      keccak256(0x00, 0x20)\n      swap1\n      0x02\n      mul\n      add\n      0x00\n      swap2\n      pop\n      swap1\n      pop\n      dup1\n      0x00\n      add\n      sload\n      swap1\n      dup1\n      0x01\n      add\n      dup1\n      sload\n      tag_44\n      swap1\n      tag_45\n      jump\t// in\n    tag_44:\n      dup1\n      0x1f\n      add\n      0x20\n      dup1\n      swap2\n      div\n      mul\n      0x20\n      add\n      mload(0x40)\n      swap1\n      dup2\n      add\n      0x40\n      mstore\n      dup1\n      swap3\n      swap2\n      swap1\n      dup2\n      dup2\n      mstore\n      0x20\n      add\n      dup3\n      dup1\n      sload\n      tag_46\n      swap1\n      tag_45\n      jump\t// in\n    tag_46:\n      dup1\n      iszero\n      tag_47\n      jumpi\n      dup1\n      0x1f\n      lt\n      tag_48\n      jumpi\n      0x0100\n      dup1\n      dup4\n      sload\n      div\n      mul\n      dup4\n      mstore\n      swap2\n      0x20\n      add\n      swap2\n      jump(tag_47)\n    tag_48:\n      dup3\n      add\n      swap2\n      swap1\n      0x00\n      mstore\n      keccak256(0x00, 0x20)\n      swap1\n    tag_49:\n      dup2\n      sload\n      dup2\n      mstore\n      swap1\n      0x01\n      add\n      swap1\n      0x20\n      add\n      dup1\n      dup4\n      gt\n      tag_49\n      jumpi\n      dup3\n      swap1\n      sub\n      0x1f\n      and\n      dup3\n      add\n      swap2\n    tag_47:\n      pop\n      pop\n      pop\n      pop\n      pop\n      swap1\n      pop\n      dup3\n      jump\t// out\n        /* \"#utility.yul\":7:82   */\n    tag_50:\n        /* \"#utility.yul\":40:46   */\n      0x00\n        /* \"#utility.yul\":73:75   */\n      0x40\n        /* \"#utility.yul\":67:76   */\n      mload\n        /* \"#utility.yul\":57:76   */\n      swap1\n      pop\n        /* \"#utility.yul\":7:82   */\n      swap1\n      jump\t// out\n        /* \"#utility.yul\":88:205   */\n    tag_51:\n        /* \"#utility.yul\":197:198   */\n      0x00\n        /* \"#utility.yul\":194:195   */\n      0x00\n        /* \"#utility.yul\":187:199   */\n      revert\n        /* \"#utility.yul\":211:328   */\n    tag_52:\n        /* \"#utility.yul\":320:321   */\n      0x00\n        /* \"#utility.yul\":317:318   */\n      0x00\n        /* \"#utility.yul\":310:322   */\n      revert\n        /* \"#utility.yul\":334:451   */\n    tag_53:\n        /* \"#utility.yul\":443:444   */\n      0x00\n        /* \"#utility.yul\":440:441   */\n      0x00\n        /* \"#utility.yul\":433:445   */\n      revert\n        /* \"#utility.yul\":457:574   */\n    tag_54:\n        /* \"#utility.yul\":566:567   */\n      0x00\n        /* \"#utility.yul\":563:564   */\n      0x00\n        /* \"#utility.yul\":556:568   */\n      revert\n        /* \"#utility.yul\":580:682   */\n    tag_55:\n        /* \"#utility.yul\":621:627   */\n      0x00\n        /* \"#utility.yul\":672:674   */\n      0x1f\n        /* \"#utility.yul\":668:675   */\n      not\n        /* \"#utility.yul\":663:665   */\n      0x1f\n        /* \"#utility.yul\":656:661   */\n      dup4\n        /* \"#utility.yul\":652:666   */\n      add\n        /* \"#utility.yul\":648:676   */\n      and\n        /* \"#utility.yul\":638:676   */\n      swap1\n      pop\n        /* \"#utility.yul\":580:682   */\n      swap2\n      swap1\n      pop\n      jump\t// out\n        /* \"#utility.yul\":688:868   */\n    tag_56:\n        /* \"#utility.yul\":736:813   */\n      0x4e487b7100000000000000000000000000000000000000000000000000000000\n        /* \"#utility.yul\":733:734   */\n      0x00\n        /* \"#utility.yul\":726:814   */\n      mstore\n        /* \"#utility.yul\":833:837   */\n      0x41\n        /* \"#utility.yul\":830:831   */\n      0x04\n        /* \"#utility.yul\":823:838   */\n      mstore\n        /* \"#utility.yul\":857:861   */\n      0x24\n        /* \"#utility.yul\":854:855   */\n      0x00\n        /* \"#utility.yul\":847:862   */\n      revert\n        /* \"#utility.yul\":874:1155   */\n    tag_57:\n        /* \"#utility.yul\":957:984   */\n      tag_98\n        /* \"#utility.yul\":979:983   */\n      dup3\n        /* \"#utility.yul\":957:984   */\n      tag_55\n      jump\t// in\n    tag_98:\n        /* \"#utility.yul\":949:955   */\n      dup2\n        /* \"#utility.yul\":945:985   */\n      add\n        /* \"#utility.yul\":1087:1093   */\n      dup2\n        /* \"#utility.yul\":1075:1085   */\n      dup2\n        /* \"#utility.yul\":1072:1094   */\n      lt\n        /* \"#utility.yul\":1051:1069   */\n      0xffffffffffffffff\n        /* \"#utility.yul\":1039:1049   */\n      dup3\n        /* \"#utility.yul\":1036:1070   */\n      gt\n        /* \"#utility.yul\":1033:1095   */\n      or\n        /* \"#utility.yul\":1030:1118   */\n      iszero\n      tag_99\n      jumpi\n        /* \"#utility.yul\":1098:1116   */\n      tag_100\n      tag_56\n      jump\t// in\n    tag_100:\n        /* \"#utility.yul\":1030:1118   */\n    tag_99:\n        /* \"#utility.yul\":1138:1148   */\n      dup1\n        /* \"#utility.yul\":1134:1136   */\n      0x40\n        /* \"#utility.yul\":1127:1149   */\n      mstore\n        /* \"#utility.yul\":917:1155   */\n      pop\n        /* \"#utility.yul\":874:1155   */\n      pop\n      pop\n      jump\t// out\n        /* \"#utility.yul\":1161:1290   */\n    tag_58:\n        /* \"#utility.yul\":1195:1201   */\n      0x00\n        /* \"#utility.yul\":1222:1242   */\n      tag_102\n      tag_50\n      jump\t// in\n    tag_102:\n        /* \"#utility.yul\":1212:1242   */\n      swap1\n      pop\n        /* \"#utility.yul\":1251:1284   */\n      tag_103\n        /* \"#utility.yul\":1279:1283   */\n      dup3\n        /* \"#utility.yul\":1271:1277   */\n      dup3\n        /* \"#utility.yul\":1251:1284   */\n      tag_57\n      jump\t// in\n    tag_103:\n        /* \"#utility.yul\":1161:1290   */\n      swap2\n      swap1\n      pop\n      jump\t// out\n        /* \"#utility.yul\":1296:1604   */\n    tag_59:\n        /* \"#utility.yul\":1358:1362   */\n      0x00\n        /* \"#utility.yul\":1448:1466   */\n      0xffffffffffffffff\n        /* \"#utility.yul\":1440:1446   */\n      dup3\n        /* \"#utility.yul\":1437:1467   */\n      gt\n        /* \"#utility.yul\":1434:1490   */\n      iszero\n      tag_105\n      jumpi\n        /* \"#utility.yul\":1470:1488   */\n      tag_106\n      tag_56\n      jump\t// in\n    tag_106:\n        /* \"#utility.yul\":1434:1490   */\n    tag_105:\n        /* \"#utility.yul\":1508:1537   */\n      tag_107\n        /* \"#utility.yul\":1530:1536   */\n      dup3\n        /* \"#utility.yul\":1508:1537   */\n      tag_55\n      jump\t// in\n    tag_107:\n        /* \"#utility.yul\":1500:1537   */\n      swap1\n      pop\n        /* \"#utility.yul\":1592:1596   */\n      0x20\n        /* \"#utility.yul\":1586:1590   */\n      dup2\n        /* \"#utility.yul\":1582:1597   */\n      add\n        /* \"#utility.yul\":1574:1597   */\n      swap1\n      pop\n        /* \"#utility.yul\":1296:1604   */\n      swap2\n      swap1\n      pop\n      jump\t// out\n        /* \"#utility.yul\":1610:1758   */\n    tag_60:\n        /* \"#utility.yul\":1708:1714   */\n      dup3\n        /* \"#utility.yul\":1703:1706   */\n      dup2\n        /* \"#utility.yul\":1698:1701   */\n      dup4\n        /* \"#utility.yul\":1685:1715   */\n      calldatacopy\n        /* \"#utility.yul\":1749:1750   */\n      0x00\n        /* \"#utility.yul\":1740:1746   */\n      dup4\n        /* \"#utility.yul\":1735:1738   */\n      dup4\n        /* \"#utility.yul\":1731:1747   */\n      add\n        /* \"#utility.yul\":1724:1751   */\n      mstore\n        /* \"#utility.yul\":1610:1758   */\n      pop\n      pop\n      pop\n      jump\t// out\n        /* \"#utility.yul\":1764:2189   */\n    tag_61:\n        /* \"#utility.yul\":1842:1847   */\n      0x00\n        /* \"#utility.yul\":1867:1933   */\n      tag_110\n        /* \"#utility.yul\":1883:1932   */\n      tag_111\n        /* \"#utility.yul\":1925:1931   */\n      dup5\n        /* \"#utility.yul\":1883:1932   */\n      tag_59\n      jump\t// in\n    tag_111:\n        /* \"#utility.yul\":1867:1933   */\n      tag_58\n      jump\t// in\n    tag_110:\n        /* \"#utility.yul\":1858:1933   */\n      swap1\n      pop\n        /* \"#utility.yul\":1956:1962   */\n      dup3\n        /* \"#utility.yul\":1949:1954   */\n      dup2\n        /* \"#utility.yul\":1942:1963   */\n      mstore\n        /* \"#utility.yul\":1994:1998   */\n      0x20\n        /* \"#utility.yul\":1987:1992   */\n      dup2\n        /* \"#utility.yul\":1983:1999   */\n      add\n        /* \"#utility.yul\":2032:2035   */\n      dup5\n        /* \"#utility.yul\":2023:2029   */\n      dup5\n        /* \"#utility.yul\":2018:2021   */\n      dup5\n        /* \"#utility.yul\":2014:2030   */\n      add\n        /* \"#utility.yul\":2011:2036   */\n      gt\n        /* \"#utility.yul\":2008:2120   */\n      iszero\n      tag_112\n      jumpi\n        /* \"#utility.yul\":2039:2118   */\n      tag_113\n      tag_54\n      jump\t// in\n    tag_113:\n        /* \"#utility.yul\":2008:2120   */\n    tag_112:\n        /* \"#utility.yul\":2129:2183   */\n      tag_114\n        /* \"#utility.yul\":2176:2182   */\n      dup5\n        /* \"#utility.yul\":2171:2174   */\n      dup3\n        /* \"#utility.yul\":2166:2169   */\n      dup6\n        /* \"#utility.yul\":2129:2183   */\n      tag_60\n      jump\t// in\n    tag_114:\n        /* \"#utility.yul\":1848:2189   */\n      pop\n        /* \"#utility.yul\":1764:2189   */\n      swap4\n      swap3\n      pop\n      pop\n      pop\n      jump\t// out\n        /* \"#utility.yul\":2209:2549   */\n    tag_62:\n        /* \"#utility.yul\":2265:2270   */\n      0x00\n        /* \"#utility.yul\":2314:2317   */\n      dup3\n        /* \"#utility.yul\":2307:2311   */\n      0x1f\n        /* \"#utility.yul\":2299:2305   */\n      dup4\n        /* \"#utility.yul\":2295:2312   */\n      add\n        /* \"#utility.yul\":2291:2318   */\n      slt\n        /* \"#utility.yul\":2281:2403   */\n      tag_116\n      jumpi\n        /* \"#utility.yul\":2322:2401   */\n      tag_117\n      tag_53\n      jump\t// in\n    tag_117:\n        /* \"#utility.yul\":2281:2403   */\n    tag_116:\n        /* \"#utility.yul\":2439:2445   */\n      dup2\n        /* \"#utility.yul\":2426:2446   */\n      calldataload\n        /* \"#utility.yul\":2464:2543   */\n      tag_118\n        /* \"#utility.yul\":2539:2542   */\n      dup5\n        /* \"#utility.yul\":2531:2537   */\n      dup3\n        /* \"#utility.yul\":2524:2528   */\n      0x20\n        /* \"#utility.yul\":2516:2522   */\n      dup7\n        /* \"#utility.yul\":2512:2529   */\n      add\n        /* \"#utility.yul\":2464:2543   */\n      tag_61\n      jump\t// in\n    tag_118:\n        /* \"#utility.yul\":2455:2543   */\n      swap2\n      pop\n        /* \"#utility.yul\":2271:2549   */\n      pop\n        /* \"#utility.yul\":2209:2549   */\n      swap3\n      swap2\n      pop\n      pop\n      jump\t// out\n        /* \"#utility.yul\":2555:3064   */\n    tag_11:\n        /* \"#utility.yul\":2624:2630   */\n      0x00\n        /* \"#utility.yul\":2673:2675   */\n      0x20\n        /* \"#utility.yul\":2661:2670   */\n      dup3\n        /* \"#utility.yul\":2652:2659   */\n      dup5\n        /* \"#utility.yul\":2648:2671   */\n      sub\n        /* \"#utility.yul\":2644:2676   */\n      slt\n        /* \"#utility.yul\":2641:2760   */\n      iszero\n      tag_120\n      jumpi\n        /* \"#utility.yul\":2679:2758   */\n      tag_121\n      tag_51\n      jump\t// in\n    tag_121:\n        /* \"#utility.yul\":2641:2760   */\n    tag_120:\n        /* \"#utility.yul\":2827:2828   */\n      0x00\n        /* \"#utility.yul\":2816:2825   */\n      dup3\n        /* \"#utility.yul\":2812:2829   */\n      add\n        /* \"#utility.yul\":2799:2830   */\n      calldataload\n        /* \"#utility.yul\":2857:2875   */\n      0xffffffffffffffff\n        /* \"#utility.yul\":2849:2855   */\n      dup2\n        /* \"#utility.yul\":2846:2876   */\n      gt\n        /* \"#utility.yul\":2843:2960   */\n      iszero\n      tag_122\n      jumpi\n        /* \"#utility.yul\":2879:2958   */\n      tag_123\n      tag_52\n      jump\t// in\n    tag_123:\n        /* \"#utility.yul\":2843:2960   */\n    tag_122:\n        /* \"#utility.yul\":2984:3047   */\n      tag_124\n        /* \"#utility.yul\":3039:3046   */\n      dup5\n        /* \"#utility.yul\":3030:3036   */\n      dup3\n        /* \"#utility.yul\":3019:3028   */\n      dup6\n        /* \"#utility.yul\":3015:3037   */\n      add\n        /* \"#utility.yul\":2984:3047   */\n      tag_62\n      jump\t// in\n    tag_124:\n        /* \"#utility.yul\":2974:3047   */\n      swap2\n      pop\n        /* \"#utility.yul\":2770:3057   */\n      pop\n        /* \"#utility.yul\":2555:3064   */\n      swap3\n      swap2\n      pop\n      pop\n      jump\t// out\n        /* \"#utility.yul\":3070:3147   */\n    tag_63:\n        /* \"#utility.yul\":3107:3114   */\n      0x00\n        /* \"#utility.yul\":3136:3141   */\n      dup2\n        /* \"#utility.yul\":3125:3141   */\n      swap1\n      pop\n        /* \"#utility.yul\":3070:3147   */\n      swap2\n      swap1\n      pop\n      jump\t// out\n        /* \"#utility.yul\":3153:3271   */\n    tag_64:\n        /* \"#utility.yul\":3240:3264   */\n      tag_127\n        /* \"#utility.yul\":3258:3263   */\n      dup2\n        /* \"#utility.yul\":3240:3264   */\n      tag_63\n      jump\t// in\n    tag_127:\n        /* \"#utility.yul\":3235:3238   */\n      dup3\n        /* \"#utility.yul\":3228:3265   */\n      mstore\n        /* \"#utility.yul\":3153:3271   */\n      pop\n      pop\n      jump\t// out\n        /* \"#utility.yul\":3277:3499   */\n    tag_14:\n        /* \"#utility.yul\":3370:3374   */\n      0x00\n        /* \"#utility.yul\":3408:3410   */\n      0x20\n        /* \"#utility.yul\":3397:3406   */\n      dup3\n        /* \"#utility.yul\":3393:3411   */\n      add\n        /* \"#utility.yul\":3385:3411   */\n      swap1\n      pop\n        /* \"#utility.yul\":3421:3492   */\n      tag_129\n        /* \"#utility.yul\":3489:3490   */\n      0x00\n        /* \"#utility.yul\":3478:3487   */\n      dup4\n        /* \"#utility.yul\":3474:3491   */\n      add\n        /* \"#utility.yul\":3465:3471   */\n      dup5\n        /* \"#utility.yul\":3421:3492   */\n      tag_64\n      jump\t// in\n    tag_129:\n        /* \"#utility.yul\":3277:3499   */\n      swap3\n      swap2\n      pop\n      pop\n      jump\t// out\n        /* \"#utility.yul\":3505:3627   */\n    tag_65:\n        /* \"#utility.yul\":3578:3602   */\n      tag_131\n        /* \"#utility.yul\":3596:3601   */\n      dup2\n        /* \"#utility.yul\":3578:3602   */\n      tag_63\n      jump\t// in\n    tag_131:\n        /* \"#utility.yul\":3571:3576   */\n      dup2\n        /* \"#utility.yul\":3568:3603   */\n      eq\n        /* \"#utility.yul\":3558:3621   */\n      tag_132\n      jumpi\n        /* \"#utility.yul\":3617:3618   */\n      0x00\n        /* \"#utility.yul\":3614:3615   */\n      0x00\n        /* \"#utility.yul\":3607:3619   */\n      revert\n        /* \"#utility.yul\":3558:3621   */\n    tag_132:\n        /* \"#utility.yul\":3505:3627   */\n      pop\n      jump\t// out\n        /* \"#utility.yul\":3633:3772   */\n    tag_66:\n        /* \"#utility.yul\":3679:3684   */\n      0x00\n        /* \"#utility.yul\":3717:3723   */\n      dup2\n        /* \"#utility.yul\":3704:3724   */\n      calldataload\n        /* \"#utility.yul\":3695:3724   */\n      swap1\n      pop\n        /* \"#utility.yul\":3733:3766   */\n      tag_134\n        /* \"#utility.yul\":3760:3765   */\n      dup2\n        /* \"#utility.yul\":3733:3766   */\n      tag_65\n      jump\t// in\n    tag_134:\n        /* \"#utility.yul\":3633:3772   */\n      swap3\n      swap2\n      pop\n      pop\n      jump\t// out\n        /* \"#utility.yul\":3778:4107   */\n    tag_17:\n        /* \"#utility.yul\":3837:3843   */\n      0x00\n        /* \"#utility.yul\":3886:3888   */\n      0x20\n        /* \"#utility.yul\":3874:3883   */\n      dup3\n        /* \"#utility.yul\":3865:3872   */\n      dup5\n        /* \"#utility.yul\":3861:3884   */\n      sub\n        /* \"#utility.yul\":3857:3889   */\n      slt\n        /* \"#utility.yul\":3854:3973   */\n      iszero\n      tag_136\n      jumpi\n        /* \"#utility.yul\":3892:3971   */\n      tag_137\n      tag_51\n      jump\t// in\n    tag_137:\n        /* \"#utility.yul\":3854:3973   */\n    tag_136:\n        /* \"#utility.yul\":4012:4013   */\n      0x00\n        /* \"#utility.yul\":4037:4090   */\n      tag_138\n        /* \"#utility.yul\":4082:4089   */\n      dup5\n        /* \"#utility.yul\":4073:4079   */\n      dup3\n        /* \"#utility.yul\":4062:4071   */\n      dup6\n        /* \"#utility.yul\":4058:4080   */\n      add\n        /* \"#utility.yul\":4037:4090   */\n      tag_66\n      jump\t// in\n    tag_138:\n        /* \"#utility.yul\":4027:4090   */\n      swap2\n      pop\n        /* \"#utility.yul\":3983:4100   */\n      pop\n        /* \"#utility.yul\":3778:4107   */\n      swap3\n      swap2\n      pop\n      pop\n      jump\t// out\n        /* \"#utility.yul\":4113:4767   */\n    tag_21:\n        /* \"#utility.yul\":4191:4197   */\n      0x00\n        /* \"#utility.yul\":4199:4205   */\n      0x00\n        /* \"#utility.yul\":4248:4250   */\n      0x40\n        /* \"#utility.yul\":4236:4245   */\n      dup4\n        /* \"#utility.yul\":4227:4234   */\n      dup6\n        /* \"#utility.yul\":4223:4246   */\n      sub\n        /* \"#utility.yul\":4219:4251   */\n      slt\n        /* \"#utility.yul\":4216:4335   */\n      iszero\n      tag_140\n      jumpi\n        /* \"#utility.yul\":4254:4333   */\n      tag_141\n      tag_51\n      jump\t// in\n    tag_141:\n        /* \"#utility.yul\":4216:4335   */\n    tag_140:\n        /* \"#utility.yul\":4402:4403   */\n      0x00\n        /* \"#utility.yul\":4391:4400   */\n      dup4\n        /* \"#utility.yul\":4387:4404   */\n      add\n        /* \"#utility.yul\":4374:4405   */\n      calldataload\n        /* \"#utility.yul\":4432:4450   */\n      0xffffffffffffffff\n        /* \"#utility.yul\":4424:4430   */\n      dup2\n        /* \"#utility.yul\":4421:4451   */\n      gt\n        /* \"#utility.yul\":4418:4535   */\n      iszero\n      tag_142\n      jumpi\n        /* \"#utility.yul\":4454:4533   */\n      tag_143\n      tag_52\n      jump\t// in\n    tag_143:\n        /* \"#utility.yul\":4418:4535   */\n    tag_142:\n        /* \"#utility.yul\":4559:4622   */\n      tag_144\n        /* \"#utility.yul\":4614:4621   */\n      dup6\n        /* \"#utility.yul\":4605:4611   */\n      dup3\n        /* \"#utility.yul\":4594:4603   */\n      dup7\n        /* \"#utility.yul\":4590:4612   */\n      add\n        /* \"#utility.yul\":4559:4622   */\n      tag_62\n      jump\t// in\n    tag_144:\n        /* \"#utility.yul\":4549:4622   */\n      swap3\n      pop\n        /* \"#utility.yul\":4345:4632   */\n      pop\n        /* \"#utility.yul\":4671:4673   */\n      0x20\n        /* \"#utility.yul\":4697:4750   */\n      tag_145\n        /* \"#utility.yul\":4742:4749   */\n      dup6\n        /* \"#utility.yul\":4733:4739   */\n      dup3\n        /* \"#utility.yul\":4722:4731   */\n      dup7\n        /* \"#utility.yul\":4718:4740   */\n      add\n        /* \"#utility.yul\":4697:4750   */\n      tag_66\n      jump\t// in\n    tag_145:\n        /* \"#utility.yul\":4687:4750   */\n      swap2\n      pop\n        /* \"#utility.yul\":4642:4760   */\n      pop\n        /* \"#utility.yul\":4113:4767   */\n      swap3\n      pop\n      swap3\n      swap1\n      pop\n      jump\t// out\n        /* \"#utility.yul\":4773:4872   */\n    tag_67:\n        /* \"#utility.yul\":4825:4831   */\n      0x00\n        /* \"#utility.yul\":4859:4864   */\n      dup2\n        /* \"#utility.yul\":4853:4865   */\n      mload\n        /* \"#utility.yul\":4843:4865   */\n      swap1\n      pop\n        /* \"#utility.yul\":4773:4872   */\n      swap2\n      swap1\n      pop\n      jump\t// out\n        /* \"#utility.yul\":4878:5047   */\n    tag_68:\n        /* \"#utility.yul\":4962:4973   */\n      0x00\n        /* \"#utility.yul\":4996:5002   */\n      dup3\n        /* \"#utility.yul\":4991:4994   */\n      dup3\n        /* \"#utility.yul\":4984:5003   */\n      mstore\n        /* \"#utility.yul\":5036:5040   */\n      0x20\n        /* \"#utility.yul\":5031:5034   */\n      dup3\n        /* \"#utility.yul\":5027:5041   */\n      add\n        /* \"#utility.yul\":5012:5041   */\n      swap1\n      pop\n        /* \"#utility.yul\":4878:5047   */\n      swap3\n      swap2\n      pop\n      pop\n      jump\t// out\n        /* \"#utility.yul\":5053:5192   */\n    tag_69:\n        /* \"#utility.yul\":5142:5148   */\n      dup3\n        /* \"#utility.yul\":5137:5140   */\n      dup2\n        /* \"#utility.yul\":5132:5135   */\n      dup4\n        /* \"#utility.yul\":5126:5149   */\n      mcopy\n        /* \"#utility.yul\":5183:5184   */\n      0x00\n        /* \"#utility.yul\":5174:5180   */\n      dup4\n        /* \"#utility.yul\":5169:5172   */\n      dup4\n        /* \"#utility.yul\":5165:5181   */\n      add\n        /* \"#utility.yul\":5158:5185   */\n      mstore\n        /* \"#utility.yul\":5053:5192   */\n      pop\n      pop\n      pop\n      jump\t// out\n        /* \"#utility.yul\":5198:5575   */\n    tag_70:\n        /* \"#utility.yul\":5286:5289   */\n      0x00\n        /* \"#utility.yul\":5314:5353   */\n      tag_150\n        /* \"#utility.yul\":5347:5352   */\n      dup3\n        /* \"#utility.yul\":5314:5353   */\n      tag_67\n      jump\t// in\n    tag_150:\n        /* \"#utility.yul\":5369:5440   */\n      tag_151\n        /* \"#utility.yul\":5433:5439   */\n      dup2\n        /* \"#utility.yul\":5428:5431   */\n      dup6\n        /* \"#utility.yul\":5369:5440   */\n      tag_68\n      jump\t// in\n    tag_151:\n        /* \"#utility.yul\":5362:5440   */\n      swap4\n      pop\n        /* \"#utility.yul\":5449:5514   */\n      tag_152\n        /* \"#utility.yul\":5507:5513   */\n      dup2\n        /* \"#utility.yul\":5502:5505   */\n      dup6\n        /* \"#utility.yul\":5495:5499   */\n      0x20\n        /* \"#utility.yul\":5488:5493   */\n      dup7\n        /* \"#utility.yul\":5484:5500   */\n      add\n        /* \"#utility.yul\":5449:5514   */\n      tag_69\n      jump\t// in\n    tag_152:\n        /* \"#utility.yul\":5539:5568   */\n      tag_153\n        /* \"#utility.yul\":5561:5567   */\n      dup2\n        /* \"#utility.yul\":5539:5568   */\n      tag_55\n      jump\t// in\n    tag_153:\n        /* \"#utility.yul\":5534:5537   */\n      dup5\n        /* \"#utility.yul\":5530:5569   */\n      add\n        /* \"#utility.yul\":5523:5569   */\n      swap2\n      pop\n        /* \"#utility.yul\":5290:5575   */\n      pop\n        /* \"#utility.yul\":5198:5575   */\n      swap3\n      swap2\n      pop\n      pop\n      jump\t// out\n        /* \"#utility.yul\":5581:6004   */\n    tag_33:\n        /* \"#utility.yul\":5722:5726   */\n      0x00\n        /* \"#utility.yul\":5760:5762   */\n      0x40\n        /* \"#utility.yul\":5749:5758   */\n      dup3\n        /* \"#utility.yul\":5745:5763   */\n      add\n        /* \"#utility.yul\":5737:5763   */\n      swap1\n      pop\n        /* \"#utility.yul\":5773:5844   */\n      tag_155\n        /* \"#utility.yul\":5841:5842   */\n      0x00\n        /* \"#utility.yul\":5830:5839   */\n      dup4\n        /* \"#utility.yul\":5826:5843   */\n      add\n        /* \"#utility.yul\":5817:5823   */\n      dup6\n        /* \"#utility.yul\":5773:5844   */\n      tag_64\n      jump\t// in\n    tag_155:\n        /* \"#utility.yul\":5891:5900   */\n      dup2\n        /* \"#utility.yul\":5885:5889   */\n      dup2\n        /* \"#utility.yul\":5881:5901   */\n      sub\n        /* \"#utility.yul\":5876:5878   */\n      0x20\n        /* \"#utility.yul\":5865:5874   */\n      dup4\n        /* \"#utility.yul\":5861:5879   */\n      add\n        /* \"#utility.yul\":5854:5902   */\n      mstore\n        /* \"#utility.yul\":5919:5997   */\n      tag_156\n        /* \"#utility.yul\":5992:5996   */\n      dup2\n        /* \"#utility.yul\":5983:5989   */\n      dup5\n        /* \"#utility.yul\":5919:5997   */\n      tag_70\n      jump\t// in\n    tag_156:\n        /* \"#utility.yul\":5911:5997   */\n      swap1\n      pop\n        /* \"#utility.yul\":5581:6004   */\n      swap4\n      swap3\n      pop\n      pop\n      pop\n      jump\t// out\n        /* \"#utility.yul\":6010:6190   */\n    tag_71:\n        /* \"#utility.yul\":6058:6135   */\n      0x4e487b7100000000000000000000000000000000000000000000000000000000\n        /* \"#utility.yul\":6055:6056   */\n      0x00\n        /* \"#utility.yul\":6048:6136   */\n      mstore\n        /* \"#utility.yul\":6155:6159   */\n      0x22\n        /* \"#utility.yul\":6152:6153   */\n      0x04\n        /* \"#utility.yul\":6145:6160   */\n      mstore\n        /* \"#utility.yul\":6179:6183   */\n      0x24\n        /* \"#utility.yul\":6176:6177   */\n      0x00\n        /* \"#utility.yul\":6169:6184   */\n      revert\n        /* \"#utility.yul\":6196:6516   */\n    tag_45:\n        /* \"#utility.yul\":6240:6246   */\n      0x00\n        /* \"#utility.yul\":6277:6278   */\n      0x02\n        /* \"#utility.yul\":6271:6275   */\n      dup3\n        /* \"#utility.yul\":6267:6279   */\n      div\n        /* \"#utility.yul\":6257:6279   */\n      swap1\n      pop\n        /* \"#utility.yul\":6324:6325   */\n      0x01\n        /* \"#utility.yul\":6318:6322   */\n      dup3\n        /* \"#utility.yul\":6314:6326   */\n      and\n        /* \"#utility.yul\":6345:6363   */\n      dup1\n        /* \"#utility.yul\":6335:6416   */\n      tag_159\n      jumpi\n        /* \"#utility.yul\":6401:6405   */\n      0x7f\n        /* \"#utility.yul\":6393:6399   */\n      dup3\n        /* \"#utility.yul\":6389:6406   */\n      and\n        /* \"#utility.yul\":6379:6406   */\n      swap2\n      pop\n        /* \"#utility.yul\":6335:6416   */\n    tag_159:\n        /* \"#utility.yul\":6463:6465   */\n      0x20\n        /* \"#utility.yul\":6455:6461   */\n      dup3\n        /* \"#utility.yul\":6452:6466   */\n      lt\n        /* \"#utility.yul\":6432:6450   */\n      dup2\n        /* \"#utility.yul\":6429:6467   */\n      sub\n        /* \"#utility.yul\":6426:6510   */\n      tag_160\n      jumpi\n        /* \"#utility.yul\":6482:6500   */\n      tag_161\n      tag_71\n      jump\t// in\n    tag_161:\n        /* \"#utility.yul\":6426:6510   */\n    tag_160:\n        /* \"#utility.yul\":6247:6516   */\n      pop\n        /* \"#utility.yul\":6196:6516   */\n      swap2\n      swap1\n      pop\n      jump\t// out\n        /* \"#utility.yul\":6522:6663   */\n    tag_72:\n        /* \"#utility.yul\":6571:6575   */\n      0x00\n        /* \"#utility.yul\":6594:6597   */\n      dup2\n        /* \"#utility.yul\":6586:6597   */\n      swap1\n      pop\n        /* \"#utility.yul\":6617:6620   */\n      dup2\n        /* \"#utility.yul\":6614:6615   */\n      0x00\n        /* \"#utility.yul\":6607:6621   */\n      mstore\n        /* \"#utility.yul\":6651:6655   */\n      0x20\n        /* \"#utility.yul\":6648:6649   */\n      0x00\n        /* \"#utility.yul\":6638:6656   */\n      keccak256\n        /* \"#utility.yul\":6630:6656   */\n      swap1\n      pop\n        /* \"#utility.yul\":6522:6663   */\n      swap2\n      swap1\n      pop\n      jump\t// out\n        /* \"#utility.yul\":6669:6762   */\n    tag_73:\n        /* \"#utility.yul\":6706:6712   */\n      0x00\n        /* \"#utility.yul\":6753:6755   */\n      0x20\n        /* \"#utility.yul\":6748:6750   */\n      0x1f\n        /* \"#utility.yul\":6741:6746   */\n      dup4\n        /* \"#utility.yul\":6737:6751   */\n      add\n        /* \"#utility.yul\":6733:6756   */\n      div\n        /* \"#utility.yul\":6723:6756   */\n      swap1\n      pop\n        /* \"#utility.yul\":6669:6762   */\n      swap2\n      swap1\n      pop\n      jump\t// out\n        /* \"#utility.yul\":6768:6875   */\n    tag_74:\n        /* \"#utility.yul\":6812:6820   */\n      0x00\n        /* \"#utility.yul\":6862:6867   */\n      dup3\n        /* \"#utility.yul\":6856:6860   */\n      dup3\n        /* \"#utility.yul\":6852:6868   */\n      shl\n        /* \"#utility.yul\":6831:6868   */\n      swap1\n      pop\n        /* \"#utility.yul\":6768:6875   */\n      swap3\n      swap2\n      pop\n      pop\n      jump\t// out\n        /* \"#utility.yul\":6881:7274   */\n    tag_75:\n        /* \"#utility.yul\":6950:6956   */\n      0x00\n        /* \"#utility.yul\":7000:7001   */\n      0x08\n        /* \"#utility.yul\":6988:6998   */\n      dup4\n        /* \"#utility.yul\":6984:7002   */\n      mul\n        /* \"#utility.yul\":7023:7120   */\n      tag_166\n        /* \"#utility.yul\":7053:7119   */\n      0xffffffffffffffffffffffffffffffffffffffffffffffffffffffffffffffff\n        /* \"#utility.yul\":7042:7051   */\n      dup3\n        /* \"#utility.yul\":7023:7120   */\n      tag_74\n      jump\t// in\n    tag_166:\n        /* \"#utility.yul\":7141:7180   */\n      tag_167\n        /* \"#utility.yul\":7171:7179   */\n      dup7\n        /* \"#utility.yul\":7160:7169   */\n      dup4\n        /* \"#utility.yul\":7141:7180   */\n      tag_74\n      jump\t// in\n    tag_167:\n        /* \"#utility.yul\":7129:7180   */\n      swap6\n      pop\n        /* \"#utility.yul\":7213:7217   */\n      dup1\n        /* \"#utility.yul\":7209:7218   */\n      not\n        /* \"#utility.yul\":7202:7207   */\n      dup5\n        /* \"#utility.yul\":7198:7219   */\n      and\n        /* \"#utility.yul\":7189:7219   */\n      swap4\n      pop\n        /* \"#utility.yul\":7262:7266   */\n      dup1\n        /* \"#utility.yul\":7252:7260   */\n      dup7\n        /* \"#utility.yul\":7248:7267   */\n      and\n        /* \"#utility.yul\":7241:7246   */\n      dup5\n        /* \"#utility.yul\":7238:7268   */\n      or\n        /* \"#utility.yul\":7228:7268   */\n      swap3\n      pop\n        /* \"#utility.yul\":6957:7274   */\n      pop\n      pop\n        /* \"#utility.yul\":6881:7274   */\n      swap4\n      swap3\n      pop\n      pop\n      pop\n      jump\t// out\n        /* \"#utility.yul\":7280:7340   */\n    tag_76:\n        /* \"#utility.yul\":7308:7311   */\n      0x00\n        /* \"#utility.yul\":7329:7334   */\n      dup2\n        /* \"#utility.yul\":7322:7334   */\n      swap1\n      pop\n        /* \"#utility.yul\":7280:7340   */\n      swap2\n      swap1\n      pop\n      jump\t// out\n        /* \"#utility.yul\":7346:7488   */\n    tag_77:\n        /* \"#utility.yul\":7396:7405   */\n      0x00\n        /* \"#utility.yul\":7429:7482   */\n      tag_170\n        /* \"#utility.yul\":7447:7481   */\n      tag_171\n        /* \"#utility.yul\":7456:7480   */\n      tag_172\n        /* \"#utility.yul\":7474:7479   */\n      dup5\n        /* \"#utility.yul\":7456:7480   */\n      tag_63\n      jump\t// in\n    tag_172:\n        /* \"#utility.yul\":7447:7481   */\n      tag_76\n      jump\t// in\n    tag_171:\n        /* \"#utility.yul\":7429:7482   */\n      tag_63\n      jump\t// in\n    tag_170:\n        /* \"#utility.yul\":7416:7482   */\n      swap1\n      pop\n        /* \"#utility.yul\":7346:7488   */\n      swap2\n      swap1\n      pop\n      jump\t// out\n        /* \"#utility.yul\":7494:7569   */\n    tag_78:\n        /* \"#utility.yul\":7537:7540   */\n      0x00\n        /* \"#utility.yul\":7558:7563   */\n      dup2\n        /* \"#utility.yul\":7551:7563   */\n      swap1\n      pop\n        /* \"#utility.yul\":7494:7569   */\n      swap2\n      swap1\n      pop\n      jump\t// out\n        /* \"#utility.yul\":7575:7844   */\n    tag_79:\n        /* \"#utility.yul\":7685:7724   */\n      tag_175\n        /* \"#utility.yul\":7716:7723   */\n      dup4\n        /* \"#utility.yul\":7685:7724   */\n      tag_77\n      jump\t// in\n    tag_175:\n        /* \"#utility.yul\":7746:7837   */\n      tag_176\n        /* \"#utility.yul\":7795:7836   */\n      tag_177\n        /* \"#utility.yul\":7819:7835   */\n      dup3\n        /* \"#utility.yul\":7795:7836   */\n      tag_78\n      jump\t// in\n    tag_177:\n        /* \"#utility.yul\":7787:7793   */\n      dup5\n        /* \"#utility.yul\":7780:7784   */\n      dup5\n        /* \"#utility.yul\":7774:7785   */\n      sload\n        /* \"#utility.yul\":7746:7837   */\n      tag_75\n      jump\t// in\n    tag_176:\n        /* \"#utility.yul\":7740:7744   */\n      dup3\n        /* \"#utility.yul\":7733:7838   */\n      sstore\n        /* \"#utility.yul\":7651:7844   */\n      pop\n        /* \"#utility.yul\":7575:7844   */\n      pop\n      pop\n      pop\n      jump\t// out\n        /* \"#utility.yul\":7850:7923   */\n    tag_80:\n        /* \"#utility.yul\":7895:7898   */\n      0x00\n        /* \"#utility.yul\":7916:7917   */\n      0x00\n        /* \"#utility.yul\":7909:7917   */\n      swap1\n      pop\n        /* \"#utility.yul\":7850:7923   */\n      swap1\n      jump\t// out\n        /* \"#utility.yul\":7929:8118   */\n    tag_81:\n        /* \"#utility.yul\":8006:8038   */\n      tag_180\n      tag_80\n      jump\t// in\n    tag_180:\n        /* \"#utility.yul\":8047:8112   */\n      tag_181\n        /* \"#utility.yul\":8105:8111   */\n      dup2\n        /* \"#utility.yul\":8097:8103   */\n      dup5\n        /* \"#utility.yul\":8091:8095   */\n      dup5\n        /* \"#utility.yul\":8047:8112   */\n      tag_79\n      jump\t// in\n    tag_181:\n        /* \"#utility.yul\":7982:8118   */\n      pop\n        /* \"#utility.yul\":7929:8118   */\n      pop\n      pop\n      jump\t// out\n        /* \"#utility.yul\":8124:8338   */\n    tag_82:\n        /* \"#utility.yul\":8209:8210   */\n      0x00\n        /* \"#utility.yul\":8194:8332   */\n    tag_183:\n        /* \"#utility.yul\":8219:8228   */\n      dup3\n        /* \"#utility.yul\":8216:8217   */\n      dup2\n        /* \"#utility.yul\":8213:8229   */\n      lt\n        /* \"#utility.yul\":8194:8332   */\n      iszero\n      tag_185\n      jumpi\n        /* \"#utility.yul\":8271:8322   */\n      tag_186\n        /* \"#utility.yul\":8320:8321   */\n      0x00\n        /* \"#utility.yul\":8316:8317   */\n      dup3\n        /* \"#utility.yul\":8305:8314   */\n      dup5\n        /* \"#utility.yul\":8301:8318   */\n      add\n        /* \"#utility.yul\":8271:8322   */\n      tag_81\n      jump\t// in\n    tag_186:\n        /* \"#utility.yul\":8244:8245   */\n      0x01\n        /* \"#utility.yul\":8241:8242   */\n      dup2\n        /* \"#utility.yul\":8237:8246   */\n      add\n        /* \"#utility.yul\":8232:8246   */\n      swap1\n      pop\n        /* \"#utility.yul\":8194:8332   */\n      jump(tag_183)\n    tag_185:\n        /* \"#utility.yul\":8198:8212   */\n      pop\n        /* \"#utility.yul\":8124:8338   */\n      pop\n      pop\n      jump\t// out\n        /* \"#utility.yul\":8344:9090   */\n    tag_83:\n        /* \"#utility.yul\":8445:8447   */\n      0x1f\n        /* \"#utility.yul\":8440:8443   */\n      dup3\n        /* \"#utility.yul\":8437:8448   */\n      gt\n        /* \"#utility.yul\":8434:9083   */\n      iszero\n      tag_188\n      jumpi\n        /* \"#utility.yul\":8474:8484   */\n      dup3\n        /* \"#utility.yul\":8469:8472   */\n      dup3\n        /* \"#utility.yul\":8466:8485   */\n      gt\n        /* \"#utility.yul\":8463:9073   */\n      iszero\n      tag_189\n      jumpi\n        /* \"#utility.yul\":8520:8558   */\n      tag_190\n        /* \"#utility.yul\":8552:8557   */\n      dup2\n        /* \"#utility.yul\":8520:8558   */\n      tag_72\n      jump\t// in\n    tag_190:\n        /* \"#utility.yul\":8595:8617   */\n      tag_191\n        /* \"#utility.yul\":8613:8616   */\n      dup4\n        /* \"#utility.yul\":8595:8617   */\n      tag_73\n      jump\t// in\n    tag_191:\n        /* \"#utility.yul\":8654:8683   */\n      tag_192\n        /* \"#utility.yul\":8672:8682   */\n      dup6\n        /* \"#utility.yul\":8654:8683   */\n      tag_73\n      jump\t// in\n    tag_192:\n        /* \"#utility.yul\":8844:8846   */\n      0x20\n        /* \"#utility.yul\":8832:8842   */\n      dup7\n        /* \"#utility.yul\":8829:8847   */\n      lt\n        /* \"#utility.yul\":8826:8905   */\n      iszero\n      tag_193\n      jumpi\n        /* \"#utility.yul\":8886:8887   */\n      0x00\n        /* \"#utility.yul\":8870:8887   */\n      swap1\n      pop\n        /* \"#utility.yul\":8826:8905   */\n    tag_193:\n        /* \"#utility.yul\":8955:8967   */\n      dup1\n        /* \"#utility.yul\":8945:8953   */\n      dup4\n        /* \"#utility.yul\":8941:8968   */\n      add\n        /* \"#utility.yul\":8985:9059   */\n      tag_194\n        /* \"#utility.yul\":9045:9057   */\n      dup3\n        /* \"#utility.yul\":9031:9043   */\n      dup5\n        /* \"#utility.yul\":9027:9058   */\n      sub\n        /* \"#utility.yul\":9014:9025   */\n      dup3\n        /* \"#utility.yul\":8985:9059   */\n      tag_82\n      jump\t// in\n    tag_194:\n        /* \"#utility.yul\":8486:9073   */\n      pop\n      pop\n      pop\n      pop\n        /* \"#utility.yul\":8463:9073   */\n    tag_189:\n        /* \"#utility.yul\":8434:9083   */\n    tag_188:\n        /* \"#utility.yul\":8344:9090   */\n      pop\n      pop\n      pop\n      jump\t// out\n        /* \"#utility.yul\":9096:9213   */\n    tag_84:\n        /* \"#utility.yul\":9150:9158   */\n      0x00\n        /* \"#utility.yul\":9200:9205   */\n      dup3\n        /* \"#utility.yul\":9194:9198   */\n      dup3\n        /* \"#utility.yul\":9190:9206   */\n      shr\n        /* \"#utility.yul\":9169:9206   */\n      swap1\n      pop\n        /* \"#utility.yul\":9096:9213   */\n      swap3\n      swap2\n      pop\n      pop\n      jump\t// out\n        /* \"#utility.yul\":9219:9388   */\n    tag_85:\n        /* \"#utility.yul\":9263:9269   */\n      0x00\n        /* \"#utility.yul\":9296:9347   */\n      tag_197\n        /* \"#utility.yul\":9344:9345   */\n      0x00\n        /* \"#utility.yul\":9340:9346   */\n      not\n        /* \"#utility.yul\":9332:9337   */\n      dup5\n        /* \"#utility.yul\":9329:9330   */\n      0x08\n        /* \"#utility.yul\":9325:9338   */\n      mul\n        /* \"#utility.yul\":9296:9347   */\n      tag_84\n      jump\t// in\n    tag_197:\n        /* \"#utility.yul\":9292:9348   */\n      not\n        /* \"#utility.yul\":9377:9381   */\n      dup1\n        /* \"#utility.yul\":9371:9375   */\n      dup4\n        /* \"#utility.yul\":9367:9382   */\n      and\n        /* \"#utility.yul\":9357:9382   */\n      swap2\n      pop\n        /* \"#utility.yul\":9270:9388   */\n      pop\n        /* \"#utility.yul\":9219:9388   */\n      swap3\n      swap2\n      pop\n      pop\n      jump\t// out\n        /* \"#utility.yul\":9393:9688   */\n    tag_86:\n        /* \"#utility.yul\":9469:9473   */\n      0x00\n        /* \"#utility.yul\":9615:9644   */\n      tag_199\n        /* \"#utility.yul\":9640:9643   */\n      dup4\n        /* \"#utility.yul\":9634:9638   */\n      dup4\n        /* \"#utility.yul\":9615:9644   */\n      tag_85\n      jump\t// in\n    tag_199:\n        /* \"#utility.yul\":9607:9644   */\n      swap2\n      pop\n        /* \"#utility.yul\":9677:9680   */\n      dup3\n        /* \"#utility.yul\":9674:9675   */\n      0x02\n        /* \"#utility.yul\":9670:9681   */\n      mul\n        /* \"#utility.yul\":9664:9668   */\n      dup3\n        /* \"#utility.yul\":9661:9682   */\n      or\n        /* \"#utility.yul\":9653:9682   */\n      swap1\n      pop\n        /* \"#utility.yul\":9393:9688   */\n      swap3\n      swap2\n      pop\n      pop\n      jump\t// out\n        /* \"#utility.yul\":9693:11088   */\n    tag_38:\n        /* \"#utility.yul\":9810:9847   */\n      tag_201\n        /* \"#utility.yul\":9843:9846   */\n      dup3\n        /* \"#utility.yul\":9810:9847   */\n      tag_67\n      jump\t// in\n    tag_201:\n        /* \"#utility.yul\":9912:9930   */\n      0xffffffffffffffff\n        /* \"#utility.yul\":9904:9910   */\n      dup2\n        /* \"#utility.yul\":9901:9931   */\n      gt\n        /* \"#utility.yul\":9898:9954   */\n      iszero\n      tag_202\n      jumpi\n        /* \"#utility.yul\":9934:9952   */\n      tag_203\n      tag_56\n      jump\t// in\n    tag_203:\n        /* \"#utility.yul\":9898:9954   */\n    tag_202:\n        /* \"#utility.yul\":9978:10016   */\n      tag_204\n        /* \"#utility.yul\":10010:10014   */\n      dup3\n        /* \"#utility.yul\":10004:10015   */\n      sload\n        /* \"#utility.yul\":9978:10016   */\n      tag_45\n      jump\t// in\n    tag_204:\n        /* \"#utility.yul\":10063:10130   */\n      tag_205\n        /* \"#utility.yul\":10123:10129   */\n      dup3\n        /* \"#utility.yul\":10115:10121   */\n      dup3\n        /* \"#utility.yul\":10109:10113   */\n      dup6\n        /* \"#utility.yul\":10063:10130   */\n      tag_83\n      jump\t// in\n    tag_205:\n        /* \"#utility.yul\":10157:10158   */\n      0x00\n        /* \"#utility.yul\":10181:10185   */\n      0x20\n        /* \"#utility.yul\":10168:10185   */\n      swap1\n      pop\n        /* \"#utility.yul\":10213:10215   */\n      0x1f\n        /* \"#utility.yul\":10205:10211   */\n      dup4\n        /* \"#utility.yul\":10202:10216   */\n      gt\n        /* \"#utility.yul\":10230:10231   */\n      0x01\n        /* \"#utility.yul\":10225:10843   */\n      dup2\n      eq\n      tag_207\n      jumpi\n        /* \"#utility.yul\":10887:10888   */\n      0x00\n        /* \"#utility.yul\":10904:10910   */\n      dup5\n        /* \"#utility.yul\":10901:10978   */\n      iszero\n      tag_208\n      jumpi\n        /* \"#utility.yul\":10953:10962   */\n      dup3\n        /* \"#utility.yul\":10948:10951   */\n      dup8\n        /* \"#utility.yul\":10944:10963   */\n      add\n        /* \"#utility.yul\":10938:10964   */\n      mload\n        /* \"#utility.yul\":10929:10964   */\n      swap1\n      pop\n        /* \"#utility.yul\":10901:10978   */\n    tag_208:\n        /* \"#utility.yul\":11004:11071   */\n      tag_209\n        /* \"#utility.yul\":11064:11070   */\n      dup6\n        /* \"#utility.yul\":11057:11062   */\n      dup3\n        /* \"#utility.yul\":11004:11071   */\n      tag_86\n      jump\t// in\n    tag_209:\n        /* \"#utility.yul\":10998:11002   */\n      dup7\n        /* \"#utility.yul\":10991:11072   */\n      sstore\n        /* \"#utility.yul\":10860:11082   */\n      pop\n        /* \"#utility.yul\":10195:11082   */\n      jump(tag_206)\n        /* \"#utility.yul\":10225:10843   */\n    tag_207:\n        /* \"#utility.yul\":10277:10281   */\n      0x1f\n        /* \"#utility.yul\":10273:10282   */\n      not\n        /* \"#utility.yul\":10265:10271   */\n      dup5\n        /* \"#utility.yul\":10261:10283   */\n      and\n        /* \"#utility.yul\":10311:10348   */\n      tag_210\n        /* \"#utility.yul\":10343:10347   */\n      dup7\n        /* \"#utility.yul\":10311:10348   */\n      tag_72\n      jump\t// in\n    tag_210:\n        /* \"#utility.yul\":10370:10371   */\n      0x00\n        /* \"#utility.yul\":10384:10592   */\n    tag_211:\n        /* \"#utility.yul\":10398:10405   */\n      dup3\n        /* \"#utility.yul\":10395:10396   */\n      dup2\n        /* \"#utility.yul\":10392:10406   */\n      lt\n        /* \"#utility.yul\":10384:10592   */\n      iszero\n      tag_213\n      jumpi\n        /* \"#utility.yul\":10477:10486   */\n      dup5\n        /* \"#utility.yul\":10472:10475   */\n      dup10\n        /* \"#utility.yul\":10468:10487   */\n      add\n        /* \"#utility.yul\":10462:10488   */\n      mload\n        /* \"#utility.yul\":10454:10460   */\n      dup3\n        /* \"#utility.yul\":10447:10489   */\n      sstore\n        /* \"#utility.yul\":10528:10529   */\n      0x01\n        /* \"#utility.yul\":10520:10526   */\n      dup3\n        /* \"#utility.yul\":10516:10530   */\n      add\n        /* \"#utility.yul\":10506:10530   */\n      swap2\n      pop\n        /* \"#utility.yul\":10575:10577   */\n      0x20\n        /* \"#utility.yul\":10564:10573   */\n      dup6\n        /* \"#utility.yul\":10560:10578   */\n      add\n        /* \"#utility.yul\":10547:10578   */\n      swap5\n      pop\n        /* \"#utility.yul\":10421:10425   */\n      0x20\n        /* \"#utility.yul\":10418:10419   */\n      dup2\n        /* \"#utility.yul\":10414:10426   */\n      add\n        /* \"#utility.yul\":10409:10426   */\n      swap1\n      pop\n        /* \"#utility.yul\":10384:10592   */\n      jump(tag_211)\n    tag_213:\n        /* \"#utility.yul\":10620:10626   */\n      dup7\n        /* \"#utility.yul\":10611:10618   */\n      dup4\n        /* \"#utility.yul\":10608:10627   */\n      lt\n        /* \"#utility.yul\":10605:10784   */\n      iszero\n      tag_214\n      jumpi\n        /* \"#utility.yul\":10678:10687   */\n      dup5\n        /* \"#utility.yul\":10673:10676   */\n      dup10\n        /* \"#utility.yul\":10669:10688   */\n      add\n        /* \"#utility.yul\":10663:10689   */\n      mload\n        /* \"#utility.yul\":10721:10769   */\n      tag_215\n        /* \"#utility.yul\":10763:10767   */\n      0x1f\n        /* \"#utility.yul\":10755:10761   */\n      dup10\n        /* \"#utility.yul\":10751:10768   */\n      and\n        /* \"#utility.yul\":10740:10749   */\n      dup3\n        /* \"#utility.yul\":10721:10769   */\n      tag_85\n      jump\t// in\n    tag_215:\n        /* \"#utility.yul\":10713:10719   */\n      dup4\n        /* \"#utility.yul\":10706:10770   */\n      sstore\n        /* \"#utility.yul\":10628:10784   */\n      pop\n        /* \"#utility.yul\":10605:10784   */\n    tag_214:\n        /* \"#utility.yul\":10830:10831   */\n      0x01\n        /* \"#utility.yul\":10826:10827   */\n      0x02\n        /* \"#utility.yul\":10818:10824   */\n      dup9\n        /* \"#utility.yul\":10814:10828   */\n      mul\n        /* \"#utility.yul\":10810:10832   */\n      add\n        /* \"#utility.yul\":10804:10808   */\n      dup9\n        /* \"#utility.yul\":10797:10833   */\n      sstore\n        /* \"#utility.yul\":10232:10843   */\n      pop\n      pop\n      pop\n        /* \"#utility.yul\":10195:11082   */\n    tag_206:\n      pop\n        /* \"#utility.yul\":9785:11088   */\n      pop\n      pop\n      pop\n        /* \"#utility.yul\":9693:11088   */\n      pop\n      pop\n      jump\t// out\n        /* \"#utility.yul\":11094:11242   */\n    tag_87:\n        /* \"#utility.yul\":11196:11207   */\n      0x00\n        /* \"#utility.yul\":11233:11236   */\n      dup2\n        /* \"#utility.yul\":11218:11236   */\n      swap1\n      pop\n        /* \"#utility.yul\":11094:11242   */\n      swap3\n      swap2\n      pop\n      pop\n      jump\t// out\n        /* \"#utility.yul\":11248:11638   */\n    tag_88:\n        /* \"#utility.yul\":11354:11357   */\n      0x00\n        /* \"#utility.yul\":11382:11421   */\n      tag_218\n        /* \"#utility.yul\":11415:11420   */\n      dup3\n        /* \"#utility.yul\":11382:11421   */\n      tag_67\n      jump\t// in\n    tag_218:\n        /* \"#utility.yul\":11437:11526   */\n      tag_219\n        /* \"#utility.yul\":11519:11525   */\n      dup2\n        /* \"#utility.yul\":11514:11517   */\n      dup6\n        /* \"#utility.yul\":11437:11526   */\n      tag_87\n      jump\t// in\n    tag_219:\n        /* \"#utility.yul\":11430:11526   */\n      swap4\n      pop\n        /* \"#utility.yul\":11535:11600   */\n      tag_220\n        /* \"#utility.yul\":11593:11599   */\n      dup2\n        /* \"#utility.yul\":11588:11591   */\n      dup6\n        /* \"#utility.yul\":11581:11585   */\n      0x20\n        /* \"#utility.yul\":11574:11579   */\n      dup7\n        /* \"#utility.yul\":11570:11586   */\n      add\n        /* \"#utility.yul\":11535:11600   */\n      tag_69\n      jump\t// in\n    tag_220:\n        /* \"#utility.yul\":11625:11631   */\n      dup1\n        /* \"#utility.yul\":11620:11623   */\n      dup5\n        /* \"#utility.yul\":11616:11632   */\n      add\n        /* \"#utility.yul\":11609:11632   */\n      swap2\n      pop\n        /* \"#utility.yul\":11358:11638   */\n      pop\n        /* \"#utility.yul\":11248:11638   */\n      swap3\n      swap2\n      pop\n      pop\n      jump\t// out\n        /* \"#utility.yul\":11644:11919   */\n    tag_40:\n        /* \"#utility.yul\":11776:11779   */\n      0x00\n        /* \"#utility.yul\":11798:11893   */\n      tag_222\n        /* \"#utility.yul\":11889:11892   */\n      dup3\n        /* \"#utility.yul\":11880:11886   */\n      dup5\n        /* \"#utility.yul\":11798:11893   */\n      tag_88\n      jump\t// in\n    tag_222:\n        /* \"#utility.yul\":11791:11893   */\n      swap2\n      pop\n        /* \"#utility.yul\":11910:11913   */\n      dup2\n        /* \"#utility.yul\":11903:11913   */\n      swap1\n      pop\n        /* \"#utility.yul\":11644:11919   */\n      swap3\n      swap2\n      pop\n      pop\n      jump\t// out\n\n    auxdata: 0xa2646970667358221220bcd3327e50803d3e722f9fa8f34605455ac980ece7c1d99fae0716ec3c4321c864736f6c63430008220033\n}\n",
				"bytecode": {
					"linkReferences": {},
					"object": "6080604052348015600e575f5ffd5b5061091a8061001c5f395ff3fe608060405234801561000f575f5ffd5b5060043610610060575f3560e01c80630ce47d1d146100645780636057361d14610094578063651141b2146100b0578063786e04d2146100cc578063a6b7fc5b146100ea578063fa11711414610108575b5f5ffd5b61007e60048036038101906100799190610402565b610139565b60405161008b9190610461565b60405180910390f35b6100ae60048036038101906100a991906104a4565b610166565b005b6100ca60048036038101906100c591906104cf565b61016f565b005b6100d46101f3565b6040516100e19190610461565b60405180910390f35b6100f26101f8565b6040516100ff9190610461565b60405180910390f35b610122600480360381019061011d91906104a4565b610200565b604051610130929190610589565b60405180910390f35b6002818051602081018201805184825260208301602085012081835280955050505050505f915090505481565b805f8190555050565b6001604051806040016040528083815260200184815250908060018154018082558091505060019003905f5260205f2090600202015f909190919091505f820151815f015560208201518160010190816101c991906107c5565b505050806002836040516101dd91906108ce565b9081526020016040518091039020819055505050565b5f5481565b5f5f54905090565b6001818154811061020f575f80fd5b905f5260205f2090600202015f91509050805f015490806001018054610234906105e4565b80601f0160208091040260200160405190810160405280929190818152602001828054610260906105e4565b80156102ab5780601f10610282576101008083540402835291602001916102ab565b820191905f5260205f20905b81548152906001019060200180831161028e57829003601f168201915b5050505050905082565b5f604051905090565b5f5ffd5b5f5ffd5b5f5ffd5b5f5ffd5b5f601f19601f8301169050919050565b7f4e487b71000000000000000000000000000000000000000000000000000000005f52604160045260245ffd5b610314826102ce565b810181811067ffffffffffffffff82111715610333576103326102de565b5b80604052505050565b5f6103456102b5565b9050610351828261030b565b919050565b5f67ffffffffffffffff8211156103705761036f6102de565b5b610379826102ce565b9050602081019050919050565b828183375f83830152505050565b5f6103a66103a184610356565b61033c565b9050828152602081018484840111156103c2576103c16102ca565b5b6103cd848285610386565b509392505050565b5f82601f8301126103e9576103e86102c6565b5b81356103f9848260208601610394565b91505092915050565b5f60208284031215610417576104166102be565b5b5f82013567ffffffffffffffff811115610434576104336102c2565b5b610440848285016103d5565b91505092915050565b5f819050919050565b61045b81610449565b82525050565b5f6020820190506104745f830184610452565b92915050565b61048381610449565b811461048d575f5ffd5b50565b5f8135905061049e8161047a565b92915050565b5f602082840312156104b9576104b86102be565b5b5f6104c684828501610490565b91505092915050565b5f5f604083850312156104e5576104e46102be565b5b5f83013567ffffffffffffffff811115610502576105016102c2565b5b61050e858286016103d5565b925050602061051f85828601610490565b9150509250929050565b5f81519050919050565b5f82825260208201905092915050565b8281835e5f83830152505050565b5f61055b82610529565b6105658185610533565b9350610575818560208601610543565b61057e816102ce565b840191505092915050565b5f60408201905061059c5f830185610452565b81810360208301526105ae8184610551565b90509392505050565b7f4e487b71000000000000000000000000000000000000000000000000000000005f52602260045260245ffd5b5f60028204905060018216806105fb57607f821691505b60208210810361060e5761060d6105b7565b5b50919050565b5f819050815f5260205f209050919050565b5f6020601f8301049050919050565b5f82821b905092915050565b5f600883026106707fffffffffffffffffffffffffffffffffffffffffffffffffffffffffffffffff82610635565b61067a8683610635565b95508019841693508086168417925050509392505050565b5f819050919050565b5f6106b56106b06106ab84610449565b610692565b610449565b9050919050565b5f819050919050565b6106ce8361069b565b6106e26106da826106bc565b848454610641565b825550505050565b5f5f905090565b6106f96106ea565b6107048184846106c5565b505050565b5f5b8281101561072a5761071f5f8284016106f1565b60018101905061070b565b505050565b601f82111561077d578282111561077c5761074981610614565b61075283610626565b61075b85610626565b6020861015610768575f90505b80830161077782840382610709565b505050505b5b505050565b5f82821c905092915050565b5f61079d5f1984600802610782565b1980831691505092915050565b5f6107b5838361078e565b9150826002028217905092915050565b6107ce82610529565b67ffffffffffffffff8111156107e7576107e66102de565b5b6107f182546105e4565b6107fc82828561072f565b5f60209050601f83116001811461082d575f841561081b578287015190505b61082585826107aa565b86555061088c565b601f19841661083b86610614565b5f5b828110156108625784890151825560018201915060208501945060208101905061083d565b8683101561087f578489015161087b601f89168261078e565b8355505b6001600288020188555050505b505050505050565b5f81905092915050565b5f6108a882610529565b6108b28185610894565b93506108c2818560208601610543565b80840191505092915050565b5f6108d9828461089e565b91508190509291505056fea2646970667358221220bcd3327e50803d3e722f9fa8f34605455ac980ece7c1d99fae0716ec3c4321c864736f6c63430008220033",
					"opcodes": "PUSH1 0x80 PUSH1 0x40 MSTORE CALLVALUE DUP1 ISZERO PUSH1 0xE JUMPI PUSH0 PUSH0 REVERT JUMPDEST POP PUSH2 0x91A DUP1 PUSH2 0x1C PUSH0 CODECOPY PUSH0 RETURN INVALID PUSH1 0x80 PUSH1 0x40 MSTORE CALLVALUE DUP1 ISZERO PUSH2 0xF JUMPI PUSH0 PUSH0 REVERT JUMPDEST POP PUSH1 0x4 CALLDATASIZE LT PUSH2 0x60 JUMPI PUSH0 CALLDATALOAD PUSH1 0xE0 SHR DUP1 PUSH4 0xCE47D1D EQ PUSH2 0x64 JUMPI DUP1 PUSH4 0x6057361D EQ PUSH2 0x94 JUMPI DUP1 PUSH4 0x651141B2 EQ PUSH2 0xB0 JUMPI DUP1 PUSH4 0x786E04D2 EQ PUSH2 0xCC JUMPI DUP1 PUSH4 0xA6B7FC5B EQ PUSH2 0xEA JUMPI DUP1 PUSH4 0xFA117114 EQ PUSH2 0x108 JUMPI JUMPDEST PUSH0 PUSH0 REVERT JUMPDEST PUSH2 0x7E PUSH1 0x4 DUP1 CALLDATASIZE SUB DUP2 ADD SWAP1 PUSH2 0x79 SWAP2 SWAP1 PUSH2 0x402 JUMP JUMPDEST PUSH2 0x139 JUMP JUMPDEST PUSH1 0x40 MLOAD PUSH2 0x8B SWAP2 SWAP1 PUSH2 0x461 JUMP JUMPDEST PUSH1 0x40 MLOAD DUP1 SWAP2 SUB SWAP1 RETURN JUMPDEST PUSH2 0xAE PUSH1 0x4 DUP1 CALLDATASIZE SUB DUP2 ADD SWAP1 PUSH2 0xA9 SWAP2 SWAP1 PUSH2 0x4A4 JUMP JUMPDEST PUSH2 0x166 JUMP JUMPDEST STOP JUMPDEST PUSH2 0xCA PUSH1 0x4 DUP1 CALLDATASIZE SUB DUP2 ADD SWAP1 PUSH2 0xC5 SWAP2 SWAP1 PUSH2 0x4CF JUMP JUMPDEST PUSH2 0x16F JUMP JUMPDEST STOP JUMPDEST PUSH2 0xD4 PUSH2 0x1F3 JUMP JUMPDEST PUSH1 0x40 MLOAD PUSH2 0xE1 SWAP2 SWAP1 PUSH2 0x461 JUMP JUMPDEST PUSH1 0x40 MLOAD DUP1 SWAP2 SUB SWAP1 RETURN JUMPDEST PUSH2 0xF2 PUSH2 0x1F8 JUMP JUMPDEST PUSH1 0x40 MLOAD PUSH2 0xFF SWAP2 SWAP1 PUSH2 0x461 JUMP JUMPDEST PUSH1 0x40 MLOAD DUP1 SWAP2 SUB SWAP1 RETURN JUMPDEST PUSH2 0x122 PUSH1 0x4 DUP1 CALLDATASIZE SUB DUP2 ADD SWAP1 PUSH2 0x11D SWAP2 SWAP1 PUSH2 0x4A4 JUMP JUMPDEST PUSH2 0x200 JUMP JUMPDEST PUSH1 0x40 MLOAD PUSH2 0x130 SWAP3 SWAP2 SWAP1 PUSH2 0x589 JUMP JUMPDEST PUSH1 0x40 MLOAD DUP1 SWAP2 SUB SWAP1 RETURN JUMPDEST PUSH1 0x2 DUP2 DUP1 MLOAD PUSH1 0x20 DUP2 ADD DUP3 ADD DUP1 MLOAD DUP5 DUP3 MSTORE PUSH1 0x20 DUP4 ADD PUSH1 0x20 DUP6 ADD KECCAK256 DUP2 DUP4 MSTORE DUP1 SWAP6 POP POP POP POP POP POP PUSH0 SWAP2 POP SWAP1 POP SLOAD DUP2 JUMP JUMPDEST DUP1 PUSH0 DUP2 SWAP1 SSTORE POP POP JUMP JUMPDEST PUSH1 0x1 PUSH1 0x40 MLOAD DUP1 PUSH1 0x40 ADD PUSH1 0x40 MSTORE DUP1 DUP4 DUP2 MSTORE PUSH1 0x20 ADD DUP5 DUP2 MSTORE POP SWAP1 DUP1 PUSH1 0x1 DUP2 SLOAD ADD DUP1 DUP3 SSTORE DUP1 SWAP2 POP POP PUSH1 0x1 SWAP1 SUB SWAP1 PUSH0 MSTORE PUSH1 0x20 PUSH0 KECCAK256 SWAP1 PUSH1 0x2 MUL ADD PUSH0 SWAP1 SWAP2 SWAP1 SWAP2 SWAP1 SWAP2 POP PUSH0 DUP3 ADD MLOAD DUP2 PUSH0 ADD SSTORE PUSH1 0x20 DUP3 ADD MLOAD DUP2 PUSH1 0x1 ADD SWAP1 DUP2 PUSH2 0x1C9 SWAP2 SWAP1 PUSH2 0x7C5 JUMP JUMPDEST POP POP POP DUP1 PUSH1 0x2 DUP4 PUSH1 0x40 MLOAD PUSH2 0x1DD SWAP2 SWAP1 PUSH2 0x8CE JUMP JUMPDEST SWAP1 DUP2 MSTORE PUSH1 0x20 ADD PUSH1 0x40 MLOAD DUP1 SWAP2 SUB SWAP1 KECCAK256 DUP2 SWAP1 SSTORE POP POP POP JUMP JUMPDEST PUSH0 SLOAD DUP2 JUMP JUMPDEST PUSH0 PUSH0 SLOAD SWAP1 POP SWAP1 JUMP JUMPDEST PUSH1 0x1 DUP2 DUP2 SLOAD DUP2 LT PUSH2 0x20F JUMPI PUSH0 DUP1 REVERT JUMPDEST SWAP1 PUSH0 MSTORE PUSH1 0x20 PUSH0 KECCAK256 SWAP1 PUSH1 0x2 MUL ADD PUSH0 SWAP2 POP SWAP1 POP DUP1 PUSH0 ADD SLOAD SWAP1 DUP1 PUSH1 0x1 ADD DUP1 SLOAD PUSH2 0x234 SWAP1 PUSH2 0x5E4 JUMP JUMPDEST DUP1 PUSH1 0x1F ADD PUSH1 0x20 DUP1 SWAP2 DIV MUL PUSH1 0x20 ADD PUSH1 0x40 MLOAD SWAP1 DUP2 ADD PUSH1 0x40 MSTORE DUP1 SWAP3 SWAP2 SWAP1 DUP2 DUP2 MSTORE PUSH1 0x20 ADD DUP3 DUP1 SLOAD PUSH2 0x260 SWAP1 PUSH2 0x5E4 JUMP JUMPDEST DUP1 ISZERO PUSH2 0x2AB JUMPI DUP1 PUSH1 0x1F LT PUSH2 0x282 JUMPI PUSH2 0x100 DUP1 DUP4 SLOAD DIV MUL DUP4 MSTORE SWAP2 PUSH1 0x20 ADD SWAP2 PUSH2 0x2AB JUMP JUMPDEST DUP3 ADD SWAP2 SWAP1 PUSH0 MSTORE PUSH1 0x20 PUSH0 KECCAK256 SWAP1 JUMPDEST DUP2 SLOAD DUP2 MSTORE SWAP1 PUSH1 0x1 ADD SWAP1 PUSH1 0x20 ADD DUP1 DUP4 GT PUSH2 0x28E JUMPI DUP3 SWAP1 SUB PUSH1 0x1F AND DUP3 ADD SWAP2 JUMPDEST POP POP POP POP POP SWAP1 POP DUP3 JUMP JUMPDEST PUSH0 PUSH1 0x40 MLOAD SWAP1 POP SWAP1 JUMP JUMPDEST PUSH0 PUSH0 REVERT JUMPDEST PUSH0 PUSH0 REVERT JUMPDEST PUSH0 PUSH0 REVERT JUMPDEST PUSH0 PUSH0 REVERT JUMPDEST PUSH0 PUSH1 0x1F NOT PUSH1 0x1F DUP4 ADD AND SWAP1 POP SWAP2 SWAP1 POP JUMP JUMPDEST PUSH32 0x4E487B7100000000000000000000000000000000000000000000000000000000 PUSH0 MSTORE PUSH1 0x41 PUSH1 0x4 MSTORE PUSH1 0x24 PUSH0 REVERT JUMPDEST PUSH2 0x314 DUP3 PUSH2 0x2CE JUMP JUMPDEST DUP2 ADD DUP2 DUP2 LT PUSH8 0xFFFFFFFFFFFFFFFF DUP3 GT OR ISZERO PUSH2 0x333 JUMPI PUSH2 0x332 PUSH2 0x2DE JUMP JUMPDEST JUMPDEST DUP1 PUSH1 0x40 MSTORE POP POP POP JUMP JUMPDEST PUSH0 PUSH2 0x345 PUSH2 0x2B5 JUMP JUMPDEST SWAP1 POP PUSH2 0x351 DUP3 DUP3 PUSH2 0x30B JUMP JUMPDEST SWAP2 SWAP1 POP JUMP JUMPDEST PUSH0 PUSH8 0xFFFFFFFFFFFFFFFF DUP3 GT ISZERO PUSH2 0x370 JUMPI PUSH2 0x36F PUSH2 0x2DE JUMP JUMPDEST JUMPDEST PUSH2 0x379 DUP3 PUSH2 0x2CE JUMP JUMPDEST SWAP1 POP PUSH1 0x20 DUP2 ADD SWAP1 POP SWAP2 SWAP1 POP JUMP JUMPDEST DUP3 DUP2 DUP4 CALLDATACOPY PUSH0 DUP4 DUP4 ADD MSTORE POP POP POP JUMP JUMPDEST PUSH0 PUSH2 0x3A6 PUSH2 0x3A1 DUP5 PUSH2 0x356 JUMP JUMPDEST PUSH2 0x33C JUMP JUMPDEST SWAP1 POP DUP3 DUP2 MSTORE PUSH1 0x20 DUP2 ADD DUP5 DUP5 DUP5 ADD GT ISZERO PUSH2 0x3C2 JUMPI PUSH2 0x3C1 PUSH2 0x2CA JUMP JUMPDEST JUMPDEST PUSH2 0x3CD DUP5 DUP3 DUP6 PUSH2 0x386 JUMP JUMPDEST POP SWAP4 SWAP3 POP POP POP JUMP JUMPDEST PUSH0 DUP3 PUSH1 0x1F DUP4 ADD SLT PUSH2 0x3E9 JUMPI PUSH2 0x3E8 PUSH2 0x2C6 JUMP JUMPDEST JUMPDEST DUP2 CALLDATALOAD PUSH2 0x3F9 DUP5 DUP3 PUSH1 0x20 DUP7 ADD PUSH2 0x394 JUMP JUMPDEST SWAP2 POP POP SWAP3 SWAP2 POP POP JUMP JUMPDEST PUSH0 PUSH1 0x20 DUP3 DUP5 SUB SLT ISZERO PUSH2 0x417 JUMPI PUSH2 0x416 PUSH2 0x2BE JUMP JUMPDEST JUMPDEST PUSH0 DUP3 ADD CALLDATALOAD PUSH8 0xFFFFFFFFFFFFFFFF DUP2 GT ISZERO PUSH2 0x434 JUMPI PUSH2 0x433 PUSH2 0x2C2 JUMP JUMPDEST JUMPDEST PUSH2 0x440 DUP5 DUP3 DUP6 ADD PUSH2 0x3D5 JUMP JUMPDEST SWAP2 POP POP SWAP3 SWAP2 POP POP JUMP JUMPDEST PUSH0 DUP2 SWAP1 POP SWAP2 SWAP1 POP JUMP JUMPDEST PUSH2 0x45B DUP2 PUSH2 0x449 JUMP JUMPDEST DUP3 MSTORE POP POP JUMP JUMPDEST PUSH0 PUSH1 0x20 DUP3 ADD SWAP1 POP PUSH2 0x474 PUSH0 DUP4 ADD DUP5 PUSH2 0x452 JUMP JUMPDEST SWAP3 SWAP2 POP POP JUMP JUMPDEST PUSH2 0x483 DUP2 PUSH2 0x449 JUMP JUMPDEST DUP2 EQ PUSH2 0x48D JUMPI PUSH0 PUSH0 REVERT JUMPDEST POP JUMP JUMPDEST PUSH0 DUP2 CALLDATALOAD SWAP1 POP PUSH2 0x49E DUP2 PUSH2 0x47A JUMP JUMPDEST SWAP3 SWAP2 POP POP JUMP JUMPDEST PUSH0 PUSH1 0x20 DUP3 DUP5 SUB SLT ISZERO PUSH2 0x4B9 JUMPI PUSH2 0x4B8 PUSH2 0x2BE JUMP JUMPDEST JUMPDEST PUSH0 PUSH2 0x4C6 DUP5 DUP3 DUP6 ADD PUSH2 0x490 JUMP JUMPDEST SWAP2 POP POP SWAP3 SWAP2 POP POP JUMP JUMPDEST PUSH0 PUSH0 PUSH1 0x40 DUP4 DUP6 SUB SLT ISZERO PUSH2 0x4E5 JUMPI PUSH2 0x4E4 PUSH2 0x2BE JUMP JUMPDEST JUMPDEST PUSH0 DUP4 ADD CALLDATALOAD PUSH8 0xFFFFFFFFFFFFFFFF DUP2 GT ISZERO PUSH2 0x502 JUMPI PUSH2 0x501 PUSH2 0x2C2 JUMP JUMPDEST JUMPDEST PUSH2 0x50E DUP6 DUP3 DUP7 ADD PUSH2 0x3D5 JUMP JUMPDEST SWAP3 POP POP PUSH1 0x20 PUSH2 0x51F DUP6 DUP3 DUP7 ADD PUSH2 0x490 JUMP JUMPDEST SWAP2 POP POP SWAP3 POP SWAP3 SWAP1 POP JUMP JUMPDEST PUSH0 DUP2 MLOAD SWAP1 POP SWAP2 SWAP1 POP JUMP JUMPDEST PUSH0 DUP3 DUP3 MSTORE PUSH1 0x20 DUP3 ADD SWAP1 POP SWAP3 SWAP2 POP POP JUMP JUMPDEST DUP3 DUP2 DUP4 MCOPY PUSH0 DUP4 DUP4 ADD MSTORE POP POP POP JUMP JUMPDEST PUSH0 PUSH2 0x55B DUP3 PUSH2 0x529 JUMP JUMPDEST PUSH2 0x565 DUP2 DUP6 PUSH2 0x533 JUMP JUMPDEST SWAP4 POP PUSH2 0x575 DUP2 DUP6 PUSH1 0x20 DUP7 ADD PUSH2 0x543 JUMP JUMPDEST PUSH2 0x57E DUP2 PUSH2 0x2CE JUMP JUMPDEST DUP5 ADD SWAP2 POP POP SWAP3 SWAP2 POP POP JUMP JUMPDEST PUSH0 PUSH1 0x40 DUP3 ADD SWAP1 POP PUSH2 0x59C PUSH0 DUP4 ADD DUP6 PUSH2 0x452 JUMP JUMPDEST DUP2 DUP2 SUB PUSH1 0x20 DUP4 ADD MSTORE PUSH2 0x5AE DUP2 DUP5 PUSH2 0x551 JUMP JUMPDEST SWAP1 POP SWAP4 SWAP3 POP POP POP JUMP JUMPDEST PUSH32 0x4E487B7100000000000000000000000000000000000000000000000000000000 PUSH0 MSTORE PUSH1 0x22 PUSH1 0x4 MSTORE PUSH1 0x24 PUSH0 REVERT JUMPDEST PUSH0 PUSH1 0x2 DUP3 DIV SWAP1 POP PUSH1 0x1 DUP3 AND DUP1 PUSH2 0x5FB JUMPI PUSH1 0x7F DUP3 AND SWAP2 POP JUMPDEST PUSH1 0x20 DUP3 LT DUP2 SUB PUSH2 0x60E JUMPI PUSH2 0x60D PUSH2 0x5B7 JUMP JUMPDEST JUMPDEST POP SWAP2 SWAP1 POP JUMP JUMPDEST PUSH0 DUP2 SWAP1 POP DUP2 PUSH0 MSTORE PUSH1 0x20 PUSH0 KECCAK256 SWAP1 POP SWAP2 SWAP1 POP JUMP JUMPDEST PUSH0 PUSH1 0x20 PUSH1 0x1F DUP4 ADD DIV SWAP1 POP SWAP2 SWAP1 POP JUMP JUMPDEST PUSH0 DUP3 DUP3 SHL SWAP1 POP SWAP3 SWAP2 POP POP JUMP JUMPDEST PUSH0 PUSH1 0x8 DUP4 MUL PUSH2 0x670 PUSH32 0xFFFFFFFFFFFFFFFFFFFFFFFFFFFFFFFFFFFFFFFFFFFFFFFFFFFFFFFFFFFFFFFF DUP3 PUSH2 0x635 JUMP JUMPDEST PUSH2 0x67A DUP7 DUP4 PUSH2 0x635 JUMP JUMPDEST SWAP6 POP DUP1 NOT DUP5 AND SWAP4 POP DUP1 DUP7 AND DUP5 OR SWAP3 POP POP POP SWAP4 SWAP3 POP POP POP JUMP JUMPDEST PUSH0 DUP2 SWAP1 POP SWAP2 SWAP1 POP JUMP JUMPDEST PUSH0 PUSH2 0x6B5 PUSH2 0x6B0 PUSH2 0x6AB DUP5 PUSH2 0x449 JUMP JUMPDEST PUSH2 0x692 JUMP JUMPDEST PUSH2 0x449 JUMP JUMPDEST SWAP1 POP SWAP2 SWAP1 POP JUMP JUMPDEST PUSH0 DUP2 SWAP1 POP SWAP2 SWAP1 POP JUMP JUMPDEST PUSH2 0x6CE DUP4 PUSH2 0x69B JUMP JUMPDEST PUSH2 0x6E2 PUSH2 0x6DA DUP3 PUSH2 0x6BC JUMP JUMPDEST DUP5 DUP5 SLOAD PUSH2 0x641 JUMP JUMPDEST DUP3 SSTORE POP POP POP POP JUMP JUMPDEST PUSH0 PUSH0 SWAP1 POP SWAP1 JUMP JUMPDEST PUSH2 0x6F9 PUSH2 0x6EA JUMP JUMPDEST PUSH2 0x704 DUP2 DUP5 DUP5 PUSH2 0x6C5 JUMP JUMPDEST POP POP POP JUMP JUMPDEST PUSH0 JUMPDEST DUP3 DUP2 LT ISZERO PUSH2 0x72A JUMPI PUSH2 0x71F PUSH0 DUP3 DUP5 ADD PUSH2 0x6F1 JUMP JUMPDEST PUSH1 0x1 DUP2 ADD SWAP1 POP PUSH2 0x70B JUMP JUMPDEST POP POP POP JUMP JUMPDEST PUSH1 0x1F DUP3 GT ISZERO PUSH2 0x77D JUMPI DUP3 DUP3 GT ISZERO PUSH2 0x77C JUMPI PUSH2 0x749 DUP2 PUSH2 0x614 JUMP JUMPDEST PUSH2 0x752 DUP4 PUSH2 0x626 JUMP JUMPDEST PUSH2 0x75B DUP6 PUSH2 0x626 JUMP JUMPDEST PUSH1 0x20 DUP7 LT ISZERO PUSH2 0x768 JUMPI PUSH0 SWAP1 POP JUMPDEST DUP1 DUP4 ADD PUSH2 0x777 DUP3 DUP5 SUB DUP3 PUSH2 0x709 JUMP JUMPDEST POP POP POP POP JUMPDEST JUMPDEST POP POP POP JUMP JUMPDEST PUSH0 DUP3 DUP3 SHR SWAP1 POP SWAP3 SWAP2 POP POP JUMP JUMPDEST PUSH0 PUSH2 0x79D PUSH0 NOT DUP5 PUSH1 0x8 MUL PUSH2 0x782 JUMP JUMPDEST NOT DUP1 DUP4 AND SWAP2 POP POP SWAP3 SWAP2 POP POP JUMP JUMPDEST PUSH0 PUSH2 0x7B5 DUP4 DUP4 PUSH2 0x78E JUMP JUMPDEST SWAP2 POP DUP3 PUSH1 0x2 MUL DUP3 OR SWAP1 POP SWAP3 SWAP2 POP POP JUMP JUMPDEST PUSH2 0x7CE DUP3 PUSH2 0x529 JUMP JUMPDEST PUSH8 0xFFFFFFFFFFFFFFFF DUP2 GT ISZERO PUSH2 0x7E7 JUMPI PUSH2 0x7E6 PUSH2 0x2DE JUMP JUMPDEST JUMPDEST PUSH2 0x7F1 DUP3 SLOAD PUSH2 0x5E4 JUMP JUMPDEST PUSH2 0x7FC DUP3 DUP3 DUP6 PUSH2 0x72F JUMP JUMPDEST PUSH0 PUSH1 0x20 SWAP1 POP PUSH1 0x1F DUP4 GT PUSH1 0x1 DUP2 EQ PUSH2 0x82D JUMPI PUSH0 DUP5 ISZERO PUSH2 0x81B JUMPI DUP3 DUP8 ADD MLOAD SWAP1 POP JUMPDEST PUSH2 0x825 DUP6 DUP3 PUSH2 0x7AA JUMP JUMPDEST DUP7 SSTORE POP PUSH2 0x88C JUMP JUMPDEST PUSH1 0x1F NOT DUP5 AND PUSH2 0x83B DUP7 PUSH2 0x614 JUMP JUMPDEST PUSH0 JUMPDEST DUP3 DUP2 LT ISZERO PUSH2 0x862 JUMPI DUP5 DUP10 ADD MLOAD DUP3 SSTORE PUSH1 0x1 DUP3 ADD SWAP2 POP PUSH1 0x20 DUP6 ADD SWAP5 POP PUSH1 0x20 DUP2 ADD SWAP1 POP PUSH2 0x83D JUMP JUMPDEST DUP7 DUP4 LT ISZERO PUSH2 0x87F JUMPI DUP5 DUP10 ADD MLOAD PUSH2 0x87B PUSH1 0x1F DUP10 AND DUP3 PUSH2 0x78E JUMP JUMPDEST DUP4 SSTORE POP JUMPDEST PUSH1 0x1 PUSH1 0x2 DUP9 MUL ADD DUP9 SSTORE POP POP POP JUMPDEST POP POP POP POP POP POP JUMP JUMPDEST PUSH0 DUP2 SWAP1 POP SWAP3 SWAP2 POP POP JUMP JUMPDEST PUSH0 PUSH2 0x8A8 DUP3 PUSH2 0x529 JUMP JUMPDEST PUSH2 0x8B2 DUP2 DUP6 PUSH2 0x894 JUMP JUMPDEST SWAP4 POP PUSH2 0x8C2 DUP2 DUP6 PUSH1 0x20 DUP7 ADD PUSH2 0x543 JUMP JUMPDEST DUP1 DUP5 ADD SWAP2 POP POP SWAP3 SWAP2 POP POP JUMP JUMPDEST PUSH0 PUSH2 0x8D9 DUP3 DUP5 PUSH2 0x89E JUMP JUMPDEST SWAP2 POP DUP2 SWAP1 POP SWAP3 SWAP2 POP POP JUMP INVALID LOG2 PUSH5 0x6970667358 0x22 SLT KECCAK256 0xBC 0xD3 ORIGIN PUSH31 0x50803D3E722F9FA8F34605455AC980ECE7C1D99FAE0716EC3C4321C864736F PUSH13 0x63430008220033000000000000 "
				},
				"gasEstimates": {
					"creation": {
						"codeDepositCost": "466000",
						"executionCost": "497",
						"totalCost": "466497"
					},
					"external": {
						"addOrang(string,uint256)": "infinite",
						"listOrang(uint256)": "infinite",
						"namaToNoFav(string)": "infinite",
						"noFav()": "2468",
						"retrive()": "2497",
						"store(uint256)": "22514"
					}
				},
				"methodIdentifiers": {
					"addOrang(string,uint256)": "651141b2",
					"listOrang(uint256)": "fa117114",
					"namaToNoFav(string)": "0ce47d1d",
					"noFav()": "786e04d2",
					"retrive()": "a6b7fc5b",
					"store(uint256)": "6057361d"
				}
			},
			"storageLayout": {
				"storage": [
					{
						"astId": 3,
						"contract": "SimpleStorage.sol:SimpleStorage",
						"label": "noFav",
						"offset": 0,
						"slot": "0",
						"type": "t_uint256"
					},
					{
						"astId": 12,
						"contract": "SimpleStorage.sol:SimpleStorage",
						"label": "listOrang",
						"offset": 0,
						"slot": "1",
						"type": "t_array(t_struct(Orang)8_storage)dyn_storage"
					},
					{
						"astId": 16,
						"contract": "SimpleStorage.sol:SimpleStorage",
						"label": "namaToNoFav",
						"offset": 0,
						"slot": "2",
						"type": "t_mapping(t_string_memory_ptr,t_uint256)"
					}
				],
				"types": {
					"t_array(t_struct(Orang)8_storage)dyn_storage": {
						"base": "t_struct(Orang)8_storage",
						"encoding": "dynamic_array",
						"label": "struct SimpleStorage.Orang[]",
						"numberOfBytes": "32"
					},
					"t_mapping(t_string_memory_ptr,t_uint256)": {
						"encoding": "mapping",
						"key": "t_string_memory_ptr",
						"label": "mapping(string => uint256)",
						"numberOfBytes": "32",
						"value": "t_uint256"
					},
					"t_string_memory_ptr": {
						"encoding": "bytes",
						"label": "string",
						"numberOfBytes": "32"
					},
					"t_string_storage": {
						"encoding": "bytes",
						"label": "string",
						"numberOfBytes": "32"
					},
					"t_struct(Orang)8_storage": {
						"encoding": "inplace",
						"label": "struct SimpleStorage.Orang",
						"members": [
							{
								"astId": 5,
								"contract": "SimpleStorage.sol:SimpleStorage",
								"label": "NoFav",
								"offset": 0,
								"slot": "0",
								"type": "t_uint256"
							},
							{
								"astId": 7,
								"contract": "SimpleStorage.sol:SimpleStorage",
								"label": "nama",
								"offset": 0,
								"slot": "1",
								"type": "t_string_storage"
							}
						],
						"numberOfBytes": "64"
					},
					"t_uint256": {
						"encoding": "inplace",
						"label": "uint256",
						"numberOfBytes": "32"
					}
				}
			},
			"userdoc": {
				"kind": "user",
				"methods": {},
				"version": 1
			}
		}
	}
}